:0D03C10001210008220000000000000000E3
:100AE90074222521F8A6070521E521B40803E4F5B8
:020AF9002122B8
:1004B800E4F549F548F547F546FCFDFEE5492529EB
:1004C800F549EE3548F548ED3547F547EC3546F53D
:1004D80046754501AF49AE48AD47AC46E47B0AFADC
:1004E800F9F81201638F498E488D478C46C374070B
:1004F80095452422F8E6FFE4FCFDFEE5492FF54981
:10050800EE3548F548ED3547F547EC3546F54605EF
:0E05180045E545B408BEAF49AE48AD47AC4618
:0105260022B2
:090B14007F087822E4F608DFFCFA
:010B1D0022B5
:0B03CE00011905061A000000000000E5
:1007DA00E51914601F24FE601B240324FB500460E7
:1007EA001B8028741A2519F8A607E51970037519CC
:1007FA0006151922EFD3940650118006EFD39402FE
:0C080A005009741A2519F8A607151922C8
:0C0AFB007F06781AE4F608DFFC75190588
:010B070022CB
:0F03D900043200001770013600C18202370000A5
:010B300022A2
:10059000E55124F6500A24FD602F24FE600A804CA9
:1005A000300249AF51020AE930020EC2021204B809
:1005B0008F358E348D338C3222200230E536B401F3
:1005C00004E4F5362275360122E4F536F535F534C6
:1005D000F533F532F537F538D202F535F534F53324
:0D05E000F532F521120B14E4F552D2B022D1
:10068E00E536B4013F0538E5387002053764644538
:10069E00377031F537F538FFFEFDFCAB35AA34A9BE
:1006AE0033A832C31202806019E53524FFF535E513
:1006BE003434FFF534E53334FFF533E53234FFF5EA
:0506CE003222C2B0223F
:0302910030023800
:10029400E4F545E521B5450DE540700974092521CE
:1002A400F87610801BE545B401082422F8E62411F1
:1002B400800674222545F8E6FF74092545F8A6074B
:0802C4000545E545B408CC2214
:1002CC00853548853447853346853245754907E47D
:1002DC00F549E549B40117E47B0AFAF9F8AF48AEE1
:1002EC0047AD46AC451201EEEB2411FF8013E47BC5
:1002FC000AFAF9F8AF48AE47AD46AC451201EEAF7D
:10030C000374092549F8A607AF48AE47AD46AC457E
:10031C00E47B0AFAF9F81201EE8F488E478D468C71
:08032C00450549E549B408AAA2
:0103340022A6
:0D03E800043B00000000013F00023900004E
:0C0B0800E4F53EF53DF53CF53BF53F22E1
:10099100E55124F3601014701EE53FB40104E4F541
:1009A1003F22753F0122E4F53FF53EF53DF53CF56B
:0809B1003BF539F53AF552223D
:1008E300E53FB40127053AE53A70020539646445EA
:1008F300397019F539F53AE53E2401F53EE4353D05
:0D090300F53DE4353CF53CE4353BF53B2289
:10052700853E48853D47853C46853B45754907E4FB
:10053700F549E549B40117E47B0AFAF9F8AF48AE83
:1005470047AD46AC451201EEEB2411FF8013E47B67
:100557000AFAF9F8AF48AE47AD46AC451201EEAF1F
:100567000374092549F8A607AF48AE47AD46AC4521
:10057700E47B0AFAF9F81201EE8F488E478D468C14
:08058700450549E549B408AA45
:01058F002249
:1006D300E54A75F00A8485F01AE54A75F00A8475CF
:1006E300F00A8485F01BE54C75F00A8485F01CE55F
:1006F3004C75F00A8475F00A8485F01DE54B75F09E
:100703000A8485F01EE54B75F00A8475F00A84852A
:03071300F01F22B2
:030B27000206D3F0
:10084C00E55124F650051460078029AF510207DAF0
:10085C00E51B75F00AA4251AF54AE51D75F00AA4E6
:10086C00251CF54CE51F75F00AA4251EF54B120A44
:05087C00FBE4F552222F
:10091000E4FFE519B5070DE540700974092519F8DC
:100920007610800C741A2FF8E6FE74092FF8A606CC
:0A0930000FBF06DE750F1075100AE8
:01093A00229A
:0903F500014D00014F00014E0012
:10071600E54D75F00A8485F01AE54D75F00A847585
:10072600F00A8485F01BE54F75F00A8485F01CE518
:100736004F75F00A8475F00A8485F01DE54E75F054
:100746000A8485F01EE54E75F00A8475F00A8485E4
:03075600F01F226F
:030B2A00020716A9
:10081600E55124F6500624FE60078029AF510207F1
:10082600DAE51B75F00AA4251AF54DE51D75F00AE3
:10083600A4251CF54FE51F75F00AA4251EF54E12DA
:060846000AFBE4F552225A
:10093B00E4FFE519B5070DE540700974092519F8B1
:10094B007610800C741A2FF8E6FE74092FF8A606A1
:0A095B000FBF06DE750F1075100BBC
:01096500226F
:10075900E52F75F00A8485F01AE52F75F00A84757E
:10076900F00A8485F01BE53175F00A8485F01CE5F3
:100779003175F00A8475F00A8485F01DE53075F04D
:100789000A8485F01EE53075F00A8475F00A8485BF
:03079900F01F222C
:030B2D0002075963
:10088100E55124F6500460078029AF510207DAE5EB
:100891001B75F00AA4251AF52FE51D75F00AA4258C
:1008A1001CF531E51F75F00AA4251EF530120AFB6F
:0408B100E4F55222F6
:10096600E4FFE519B5070DE540700974092519F886
:100976007610800C741A2FF8E6FE74092FF8A60676
:0A0986000FBF06DE750F107510108C
:010990002244
:100AC1000001010100000000000001000100000020
:040AD1000000000021
:1003FE00012F00013100013000022A0000C100C1AE
:08040E0001022D0000012C0089
:10079C00E55124F5601714601B14601F14602114BC
:1007AC00602524057027120B2D75520122120B2780
:1007BC0075520222120B2A75520322C200C2012268
:0E07CC00120B0875520422120B3075520522D2
:100A7300052FE52FB43C17E4F52F0531E531B43CE0
:0F0A83000DE4F5310530E530B41803E4F5302209
:1005ED00052BE52B7002052AB4E80DE52AB40308A6
:1005FD00E4F52AF52B120A73200003300134052E81
:10060D00E52E7002052D64C8452D7028F52DF52EAB
:10061D00300007E52C900AC1800830010AE52C90C6
:10062D000ACB9324FF92B0052CE52CB40406E4F517
:05063D002C22D2B022C6
:100A2E00E52FB54A0CE531B54C07E530B54B02D292
:100A3E0000E52FB54D0CE531B54F07E530B54E024B
:030A4E00D20122B0
:10064200E4FEEF75F00A8474092EF8A6F0EF75F057
:100652000A84FF0EBE02EB7E02ED75F00A84740975
:100662002EF8A6F0ED75F00A84FD0EBE04EB7E04B2
:10067200EB75F00A8474092EF8A6F0EB75F00A8483
:0B068200FB0EBE06EB750F107510108C
:01068D00224A
:0304160001520090
:08000300E5527003120A2E22DF
:1009B900E552146013146013146013146013146067
:1009C900132405701202079C02088102084C0208D0
:0809D90016020991120590229B
:100AAC001205EDE55224FC60051460058006020871
:050ABC00E312068E228A
:1008B500E552146019146019146019146019146054
:1008C5001924057018AB30AD31AF2F02064202096D
:0E08D5006602091002093B0205271202912259
:100A09003F065B4F666D7D077F6F777C395E797135
:100A190000BF86DBCFE6EDFD87FFEF7338FEFDFBF8
:050A2900F7EFDFBF7FC5
:100419000809001010101010101008110010101009
:070429001010101001080083
:100A510075A0FF74092508F8E6900A0993F580E569
:100A610008900A2693F5A00508E508B40803E4F503
:020A7100082259
:0604300001500001510023
:080B1E007F6C7E91DEFEDFFC1E
:010B260022AC
:10000E0075907F85904553450FE545640F60461208
:10001E000B1E85904553450FE545640F603785905F
:10002E0045755001E5452485601024FE601114606D
:10003E001324077012755101800D755102800875D9
:10004E005103800375510AE545640F60088590459C
:10005E0053450F80F27590BF85904553450FE5458A
:10006E00640F6046120B1E85904553450FE545649F
:10007E000F6037859045755001E545244560102485
:10008E00FE601114601324077012755104800D75F3
:10009E0051058008755106800375510BE545640FB7
:1000AE00600885904553450F80F27590DF85904529
:1000BE0053450FE545640F6046120B1E8590455360
:1000CE00450FE545640F6037859045755001E54550
:1000DE002425601024FE601114601324077012751D
:1000EE005107800D755108800875510980037551AF
:1000FE000CE545640F600885904553450F80F275F9
:10010E0090EF85904553450FE545640F6046120B01
:10011E001E85904553450FE545640F603785904524
:10012E00755001E5452415601024FE60111460130E
:10013E002407701275510D800DE4F551800875512C
:10014E000E800375510FE545640F60088590455389
:04015E00450F80F2D7
:01016200227A
:0D04360001410001440001400002420000AD
:100A9200E4F593F594F591F592F595F596F5B1F5A2
:0A0AA200B2F5B3F5B4F5C9F5CA22A8
:100AD500538E7F5389F0438901758A18758CFCC242
:040AE5008DD28C2200
:1009E100120A92120AD5D2A9D2AF120003E541B47C
:1009F1000106E4F54112000EE550B40106E4F5509C
:080A01001209B91208B580E2E8
:03000B00020444A8
:10044400C0E0C0F0C083C082C0D075D000C000C07E
:1004540001C002C003C004C005C006C007758A18E5
:10046400758CFC120A510544E544B40A067544002F
:100474007541010543E54370020542B42C18E54279
:10048400B40113754200754300E540B4010575409D
:10049400008003754001120AACD007D006D005D005
:1004A40004D003D002D001D000D0D0D082D083D0E9
:0404B400F0D0E03272
:03000000020335C3
:0C033500787FE4F6D8FD75815202037C4D
:10016300E88FF0A4CC8BF0A42CFCE98EF0A42CFC3B
:100173008AF0EDA42CFCEA8EF0A4CDA8F08BF0A4B9
:100183002DCC3825F0FDE98FF0A42CCD35F0FCEB18
:100193008EF0A4FEA9F0EB8FF0A4CFC5F02ECD39DD
:0F01A300FEE43CFCEAA42DCE35F0FDE43CFC224A
:1001B20075F008758200EF2FFFEE33FECD33CDCC04
:1001C20033CCC58233C5829BED9AEC99E582984087
:1001D2000CF582EE9BFEED9AFDEC99FC0FD5F0D664
:1001E200E4CEFBE4CDFAE4CCF9A88222B800C1B98E
:1001F2000059BA002DEC8BF084CFCECDFCE5F0CBCC
:10020200F97818EF2FFFEE33FEED33FDEC33FCEB04
:1002120033FB10D703994004EB99FB0FD8E5E4F9BF
:10022200FA227818EF2FFFEE33FEED33FDEC33FCAC
:10023200C933C910D7059BE99A4007EC9BFCE99AA0
:10024200F90FD8E0E4C9FAE4CCFB2275F010EF2FE5
:10025200FFEE33FEED33FDCC33CCC833C810D707E5
:100262009BEC9AE899400AED9BFDEC9AFCE899F820
:0E0272000FD5F0DAE4CDFBE4CCFAE4C8F922B3
:10028000EB9FF5F0EA9E42F0E99D42F0E89C45F0D4
:01029000224B
:100341000209E1E493A3F8E493A34003F68001F2E8
:1003510008DFF48029E493A3F85407240CC8C333BD
:10036100C4540F4420C8834004F456800146F6DF8C
:10037100E4800B01020408102040809003C1E47E58
:10038100019360BCA3FF543F30E509541FFEE49381
:10039100A360010ECF54C025E060A840B8E493A348
:1003A100FAE493A3F8E493A3C8C582C8CAC583CA73
:1003B100F0A3C8C582C8CAC583CADFE9DEE780BE2B
:0104430000B8
:00000001FF
